{
  "_format": "hh-sol-artifact-1",
  "contractName": "PriceConsumerV3",
  "sourceName": "contracts/GetPrice.sol",
  "abi": [
    {
      "inputs": [],
      "stateMutability": "nonpayable",
      "type": "constructor"
    },
    {
      "inputs": [],
      "name": "getLatestPrice",
      "outputs": [
        {
          "internalType": "int256",
          "name": "",
          "type": "int256"
        }
      ],
      "stateMutability": "view",
      "type": "function"
    },
    {
      "inputs": [],
      "name": "storeLatestPrice",
      "outputs": [],
      "stateMutability": "nonpayable",
      "type": "function"
    },
    {
      "inputs": [],
      "name": "storedPrice",
      "outputs": [
        {
          "internalType": "int256",
          "name": "",
          "type": "int256"
        }
      ],
      "stateMutability": "view",
      "type": "function"
    }
  ],
  "bytecode": "0x608060405234801561001057600080fd5b50738a753747a1fa494ec906ce90e9f37563a8af630e6000806101000a81548173ffffffffffffffffffffffffffffffffffffffff021916908373ffffffffffffffffffffffffffffffffffffffff1602179055506102de806100746000396000f3fe608060405234801561001057600080fd5b50600436106100415760003560e01c806353d10acb146100465780638e15f473146100505780639ed301281461006e575b600080fd5b61004e61008c565b005b61005861009c565b6040516100659190610169565b60405180910390f35b61007661014a565b6040516100839190610169565b60405180910390f35b61009461009c565b600181905550565b60008060008054906101000a900473ffffffffffffffffffffffffffffffffffffffff1673ffffffffffffffffffffffffffffffffffffffff1663feaf968c6040518163ffffffff1660e01b815260040160a06040518083038186803b15801561010557600080fd5b505afa158015610119573d6000803e3d6000fd5b505050506040513d601f19601f8201168201806040525081019061013d919061022d565b5050509150508091505090565b60015481565b6000819050919050565b61016381610150565b82525050565b600060208201905061017e600083018461015a565b92915050565b600080fd5b600069ffffffffffffffffffff82169050919050565b6101a881610189565b81146101b357600080fd5b50565b6000815190506101c58161019f565b92915050565b6101d481610150565b81146101df57600080fd5b50565b6000815190506101f1816101cb565b92915050565b6000819050919050565b61020a816101f7565b811461021557600080fd5b50565b60008151905061022781610201565b92915050565b600080600080600060a0868803121561024957610248610184565b5b6000610257888289016101b6565b9550506020610268888289016101e2565b945050604061027988828901610218565b935050606061028a88828901610218565b925050608061029b888289016101b6565b915050929550929590935056fea2646970667358221220021ed80c80243975335b8075d723de925d9d925a59c2a614709e699d2413774064736f6c63430008090033",
  "linkReferences": {},
  "deployedLinkReferences": {}
}