{
  "contracts/GetPrice.sol": {
    "PriceConsumerV3": {
      "abi": [
        {
          "inputs": [],
          "stateMutability": "nonpayable",
          "type": "constructor"
        },
        {
          "inputs": [],
          "name": "getLatestPrice",
          "outputs": [
            {
              "internalType": "int256",
              "name": "",
              "type": "int256"
            }
          ],
          "stateMutability": "view",
          "type": "function"
        },
        {
          "inputs": [],
          "name": "storeLatestPrice",
          "outputs": [],
          "stateMutability": "nonpayable",
          "type": "function"
        },
        {
          "inputs": [],
          "name": "storedPrice",
          "outputs": [
            {
              "internalType": "int256",
              "name": "",
              "type": "int256"
            }
          ],
          "stateMutability": "view",
          "type": "function"
        }
      ],
      "evm": {
        "bytecode": {
          "linkReferences": {},
          "object": "608060405234801561001057600080fd5b50738a753747a1fa494ec906ce90e9f37563a8af630e6000806101000a81548173ffffffffffffffffffffffffffffffffffffffff021916908373ffffffffffffffffffffffffffffffffffffffff1602179055506102de806100746000396000f3fe608060405234801561001057600080fd5b50600436106100415760003560e01c806353d10acb146100465780638e15f473146100505780639ed301281461006e575b600080fd5b61004e61008c565b005b61005861009c565b6040516100659190610169565b60405180910390f35b61007661014a565b6040516100839190610169565b60405180910390f35b61009461009c565b600181905550565b60008060008054906101000a900473ffffffffffffffffffffffffffffffffffffffff1673ffffffffffffffffffffffffffffffffffffffff1663feaf968c6040518163ffffffff1660e01b815260040160a06040518083038186803b15801561010557600080fd5b505afa158015610119573d6000803e3d6000fd5b505050506040513d601f19601f8201168201806040525081019061013d919061022d565b5050509150508091505090565b60015481565b6000819050919050565b61016381610150565b82525050565b600060208201905061017e600083018461015a565b92915050565b600080fd5b600069ffffffffffffffffffff82169050919050565b6101a881610189565b81146101b357600080fd5b50565b6000815190506101c58161019f565b92915050565b6101d481610150565b81146101df57600080fd5b50565b6000815190506101f1816101cb565b92915050565b6000819050919050565b61020a816101f7565b811461021557600080fd5b50565b60008151905061022781610201565b92915050565b600080600080600060a0868803121561024957610248610184565b5b6000610257888289016101b6565b9550506020610268888289016101e2565b945050604061027988828901610218565b935050606061028a88828901610218565b925050608061029b888289016101b6565b915050929550929590935056fea2646970667358221220021ed80c80243975335b8075d723de925d9d925a59c2a614709e699d2413774064736f6c63430008090033",
          "opcodes": "PUSH1 0x80 PUSH1 0x40 MSTORE CALLVALUE DUP1 ISZERO PUSH2 0x10 JUMPI PUSH1 0x0 DUP1 REVERT JUMPDEST POP PUSH20 0x8A753747A1FA494EC906CE90E9F37563A8AF630E PUSH1 0x0 DUP1 PUSH2 0x100 EXP DUP2 SLOAD DUP2 PUSH20 0xFFFFFFFFFFFFFFFFFFFFFFFFFFFFFFFFFFFFFFFF MUL NOT AND SWAP1 DUP4 PUSH20 0xFFFFFFFFFFFFFFFFFFFFFFFFFFFFFFFFFFFFFFFF AND MUL OR SWAP1 SSTORE POP PUSH2 0x2DE DUP1 PUSH2 0x74 PUSH1 0x0 CODECOPY PUSH1 0x0 RETURN INVALID PUSH1 0x80 PUSH1 0x40 MSTORE CALLVALUE DUP1 ISZERO PUSH2 0x10 JUMPI PUSH1 0x0 DUP1 REVERT JUMPDEST POP PUSH1 0x4 CALLDATASIZE LT PUSH2 0x41 JUMPI PUSH1 0x0 CALLDATALOAD PUSH1 0xE0 SHR DUP1 PUSH4 0x53D10ACB EQ PUSH2 0x46 JUMPI DUP1 PUSH4 0x8E15F473 EQ PUSH2 0x50 JUMPI DUP1 PUSH4 0x9ED30128 EQ PUSH2 0x6E JUMPI JUMPDEST PUSH1 0x0 DUP1 REVERT JUMPDEST PUSH2 0x4E PUSH2 0x8C JUMP JUMPDEST STOP JUMPDEST PUSH2 0x58 PUSH2 0x9C JUMP JUMPDEST PUSH1 0x40 MLOAD PUSH2 0x65 SWAP2 SWAP1 PUSH2 0x169 JUMP JUMPDEST PUSH1 0x40 MLOAD DUP1 SWAP2 SUB SWAP1 RETURN JUMPDEST PUSH2 0x76 PUSH2 0x14A JUMP JUMPDEST PUSH1 0x40 MLOAD PUSH2 0x83 SWAP2 SWAP1 PUSH2 0x169 JUMP JUMPDEST PUSH1 0x40 MLOAD DUP1 SWAP2 SUB SWAP1 RETURN JUMPDEST PUSH2 0x94 PUSH2 0x9C JUMP JUMPDEST PUSH1 0x1 DUP2 SWAP1 SSTORE POP JUMP JUMPDEST PUSH1 0x0 DUP1 PUSH1 0x0 DUP1 SLOAD SWAP1 PUSH2 0x100 EXP SWAP1 DIV PUSH20 0xFFFFFFFFFFFFFFFFFFFFFFFFFFFFFFFFFFFFFFFF AND PUSH20 0xFFFFFFFFFFFFFFFFFFFFFFFFFFFFFFFFFFFFFFFF AND PUSH4 0xFEAF968C PUSH1 0x40 MLOAD DUP2 PUSH4 0xFFFFFFFF AND PUSH1 0xE0 SHL DUP2 MSTORE PUSH1 0x4 ADD PUSH1 0xA0 PUSH1 0x40 MLOAD DUP1 DUP4 SUB DUP2 DUP7 DUP1 EXTCODESIZE ISZERO DUP1 ISZERO PUSH2 0x105 JUMPI PUSH1 0x0 DUP1 REVERT JUMPDEST POP GAS STATICCALL ISZERO DUP1 ISZERO PUSH2 0x119 JUMPI RETURNDATASIZE PUSH1 0x0 DUP1 RETURNDATACOPY RETURNDATASIZE PUSH1 0x0 REVERT JUMPDEST POP POP POP POP PUSH1 0x40 MLOAD RETURNDATASIZE PUSH1 0x1F NOT PUSH1 0x1F DUP3 ADD AND DUP3 ADD DUP1 PUSH1 0x40 MSTORE POP DUP2 ADD SWAP1 PUSH2 0x13D SWAP2 SWAP1 PUSH2 0x22D JUMP JUMPDEST POP POP POP SWAP2 POP POP DUP1 SWAP2 POP POP SWAP1 JUMP JUMPDEST PUSH1 0x1 SLOAD DUP2 JUMP JUMPDEST PUSH1 0x0 DUP2 SWAP1 POP SWAP2 SWAP1 POP JUMP JUMPDEST PUSH2 0x163 DUP2 PUSH2 0x150 JUMP JUMPDEST DUP3 MSTORE POP POP JUMP JUMPDEST PUSH1 0x0 PUSH1 0x20 DUP3 ADD SWAP1 POP PUSH2 0x17E PUSH1 0x0 DUP4 ADD DUP5 PUSH2 0x15A JUMP JUMPDEST SWAP3 SWAP2 POP POP JUMP JUMPDEST PUSH1 0x0 DUP1 REVERT JUMPDEST PUSH1 0x0 PUSH10 0xFFFFFFFFFFFFFFFFFFFF DUP3 AND SWAP1 POP SWAP2 SWAP1 POP JUMP JUMPDEST PUSH2 0x1A8 DUP2 PUSH2 0x189 JUMP JUMPDEST DUP2 EQ PUSH2 0x1B3 JUMPI PUSH1 0x0 DUP1 REVERT JUMPDEST POP JUMP JUMPDEST PUSH1 0x0 DUP2 MLOAD SWAP1 POP PUSH2 0x1C5 DUP2 PUSH2 0x19F JUMP JUMPDEST SWAP3 SWAP2 POP POP JUMP JUMPDEST PUSH2 0x1D4 DUP2 PUSH2 0x150 JUMP JUMPDEST DUP2 EQ PUSH2 0x1DF JUMPI PUSH1 0x0 DUP1 REVERT JUMPDEST POP JUMP JUMPDEST PUSH1 0x0 DUP2 MLOAD SWAP1 POP PUSH2 0x1F1 DUP2 PUSH2 0x1CB JUMP JUMPDEST SWAP3 SWAP2 POP POP JUMP JUMPDEST PUSH1 0x0 DUP2 SWAP1 POP SWAP2 SWAP1 POP JUMP JUMPDEST PUSH2 0x20A DUP2 PUSH2 0x1F7 JUMP JUMPDEST DUP2 EQ PUSH2 0x215 JUMPI PUSH1 0x0 DUP1 REVERT JUMPDEST POP JUMP JUMPDEST PUSH1 0x0 DUP2 MLOAD SWAP1 POP PUSH2 0x227 DUP2 PUSH2 0x201 JUMP JUMPDEST SWAP3 SWAP2 POP POP JUMP JUMPDEST PUSH1 0x0 DUP1 PUSH1 0x0 DUP1 PUSH1 0x0 PUSH1 0xA0 DUP7 DUP9 SUB SLT ISZERO PUSH2 0x249 JUMPI PUSH2 0x248 PUSH2 0x184 JUMP JUMPDEST JUMPDEST PUSH1 0x0 PUSH2 0x257 DUP9 DUP3 DUP10 ADD PUSH2 0x1B6 JUMP JUMPDEST SWAP6 POP POP PUSH1 0x20 PUSH2 0x268 DUP9 DUP3 DUP10 ADD PUSH2 0x1E2 JUMP JUMPDEST SWAP5 POP POP PUSH1 0x40 PUSH2 0x279 DUP9 DUP3 DUP10 ADD PUSH2 0x218 JUMP JUMPDEST SWAP4 POP POP PUSH1 0x60 PUSH2 0x28A DUP9 DUP3 DUP10 ADD PUSH2 0x218 JUMP JUMPDEST SWAP3 POP POP PUSH1 0x80 PUSH2 0x29B DUP9 DUP3 DUP10 ADD PUSH2 0x1B6 JUMP JUMPDEST SWAP2 POP POP SWAP3 SWAP6 POP SWAP3 SWAP6 SWAP1 SWAP4 POP JUMP INVALID LOG2 PUSH5 0x6970667358 0x22 SLT KECCAK256 MUL 0x1E 0xD8 0xC DUP1 0x24 CODECOPY PUSH22 0x335B8075D723DE925D9D925A59C2A614709E699D2413 PUSH24 0x4064736F6C63430008090033000000000000000000000000 "
        },
        "methodIdentifiers": {
          "getLatestPrice()": "8e15f473",
          "storeLatestPrice()": "53d10acb",
          "storedPrice()": "9ed30128"
        }
      }
    }
  }
}