{
  "_format": "hh-sol-artifact-1",
  "contractName": "Refund",
  "sourceName": "contracts/Refund.sol",
  "abi": [
    {
      "inputs": [],
      "stateMutability": "nonpayable",
      "type": "constructor"
    },
    {
      "inputs": [],
      "name": "owner",
      "outputs": [
        {
          "internalType": "address",
          "name": "",
          "type": "address"
        }
      ],
      "stateMutability": "view",
      "type": "function"
    },
    {
      "inputs": [
        {
          "internalType": "address payable",
          "name": "_to",
          "type": "address"
        }
      ],
      "name": "sendRefund",
      "outputs": [],
      "stateMutability": "payable",
      "type": "function"
    }
  ],
  "bytecode": "0x608060405234801561001057600080fd5b5061030e806100206000396000f3fe6080604052600436106100295760003560e01c80638da5cb5b1461002e578063cae4d67614610059575b600080fd5b34801561003a57600080fd5b50610043610075565b604051610050919061018a565b60405180910390f35b610073600480360381019061006e91906101e8565b610099565b005b60008054906101000a900473ffffffffffffffffffffffffffffffffffffffff1681565b60008173ffffffffffffffffffffffffffffffffffffffff16346040516100bf90610246565b60006040518083038185875af1925050503d80600081146100fc576040519150601f19603f3d011682016040523d82523d6000602084013e610101565b606091505b5050905080610145576040517f08c379a000000000000000000000000000000000000000000000000000000000815260040161013c906102b8565b60405180910390fd5b5050565b600073ffffffffffffffffffffffffffffffffffffffff82169050919050565b600061017482610149565b9050919050565b61018481610169565b82525050565b600060208201905061019f600083018461017b565b92915050565b600080fd5b60006101b582610149565b9050919050565b6101c5816101aa565b81146101d057600080fd5b50565b6000813590506101e2816101bc565b92915050565b6000602082840312156101fe576101fd6101a5565b5b600061020c848285016101d3565b91505092915050565b600081905092915050565b50565b6000610230600083610215565b915061023b82610220565b600082019050919050565b600061025182610223565b9150819050919050565b600082825260208201905092915050565b7f4661696c656420746f2073656e64204574686572000000000000000000000000600082015250565b60006102a260148361025b565b91506102ad8261026c565b602082019050919050565b600060208201905081810360008301526102d181610295565b905091905056fea26469706673582212202fc8d467e3e2bd7a0148ade60b6a405d2ca82252122d1bedac2927d25f36e8b264736f6c63430008090033",
  "linkReferences": {},
  "deployedLinkReferences": {}
}